:100000000C942A000C9476010C943C000C943C0057
:100010000C943C000C943C000C943C000C943C0070
:100020000C943C000C943C000C943C000C943C0060
:100030000C943C000C943C000C943C000C943C0050
:100040000C943C000C943C000C943C000C943C0040
:100050000C943C0011241FBECFE5D8E0DEBFCDBF1D
:1000600020E0A0E6B0E001C01D92A736B207E1F79C
:100070000E94DE010C944C050C94000062E080E0CC
:100080000E94D20161E080E00E94D20160E080E045
:100090000E94D20162E081E00E94D20161E081E031
:1000A0000E94D20160E081E00E94D20162E083E020
:1000B0000E94CE010E94CD02789485B7836085BFEF
:1000C0008BB780648BBF0895CF93809165008111B9
:1000D00005C160E081E00E94D6018091640081301A
:1000E000A9F120F0823009F468C0FEC060E080E031
:1000F0000E94D60161E080E00E94DA0162E080E0C7
:100100000E94DA011092660019C08EEB90E00E9406
:10011000CF0280916500813061F460E080E00E9450
:10012000DA0160E081E00E94DA0182E080936300FE
:1001300009C0809166008F5F8093660080916600A1
:10014000893118F382E080936400CEC060E080E0E3
:100150000E94DA0162E080E00E94DA0110926600FB
:1001600025C061E080E00E94D6018CED90E00E9405
:10017000CF0261E080E00E94DA018CED90E00E9405
:10018000CF0280916500813061F461E080E00E94DF
:10019000DA0160E081E00E94DA0181E0809363008F
:1001A00009C0809166008F5F809366008091660031
:1001B0008A30B8F21092640097C062E080E00E943A
:1001C000D60161E080E00E94DA0160E080E00E94F8
:1001D000DA011092660019C08EEB90E00E94CF0207
:1001E00080916500813061F462E080E00E94DA0174
:1001F00060E081E00E94DA0181E08093630009C041
:10020000809166008F5F80936600809166008931DF
:1002100018F381E08093640067C0809163008130AF
:10022000E9F020F0823009F440C056C060E081E07F
:100230000E94D60162E080E00E94D60188E893E146
:100240000E94CF0260E081E00E94DA0162E080E07B
:100250000E94DA0182E0809363003EC01092660043
:100260001DC061E080E00E94D60161E081E00E9453
:10027000D6018CED90E00E94CF0261E080E00E9408
:10028000DA0161E081E00E94DA018CED90E00E94E9
:10029000CF02809166008F5F809366008091660038
:1002A0008A30F8F21092630017C062E081E00E9489
:1002B000D60160E080E00E94D60188E893E10E94C8
:1002C000CF0260E080E00E94DA0162E081E00E94FB
:1002D000DA0181E080936300CF5F01C0C0E0C630E7
:1002E00008F49BCF10926500CF9108951F920F9252
:1002F0000FB60F9211242F933F934F935F936F93F9
:100300007F938F939F93AF93BF93EF93FF938091CE
:1003100062008F5F80936200813039F40E941E0377
:1003200090E0909361008093600080916200823041
:10033000C8F00E941E0390E020916000309161009F
:10034000821B930B8E3E924018F41092620015C0EF
:1003500081E0809362000E941E0390E09093610010
:100360008093600080916400823038F48091650051
:10037000813019F081E080936500FF91EF91BF918A
:10038000AF919F918F917F916F915F914F913F912D
:100390002F910F900FBE0F901F90189540E00E9474
:1003A000E301089541E00E94E301089541E00E94C5
:1003B0005802089540E00E94580208950E943E00AD
:1003C0000E946400FDCF813011F130F08230D1F114
:1003D000833009F452C00895413059F42AB381E0C2
:1003E00090E002C0880F991F6A95E2F7822B8ABBC2
:1003F000089541115CC02AB381E090E002C0880FEB
:10040000991F6A95E2F7809582238ABB089541304F
:1004100059F427B381E090E002C0880F991F6A95D4
:10042000E2F7822B87BB0895411141C027B381E0D9
:1004300090E002C0880F991F6A95E2F780958223A9
:1004400087BB0895413059F424B381E090E002C0A5
:10045000880F991F6A95E2F7822B84BB089541119A
:1004600026C024B381E090E002C0880F991F6A95EE
:10047000E2F78095822384BB0895413059F421B37B
:1004800081E090E002C0880F991F6A95E2F7822B05
:1004900081BB089541110BC021B381E090E002C0FF
:1004A000880F991F6A95E2F78095822381BB089592
:1004B000813011F130F08230D1F1833009F452C033
:1004C0000895413059F42BB381E090E002C0880FC9
:1004D000991F6A95E2F7822B8BBB089541115CC08E
:1004E0002BB381E090E002C0880F991F6A95E2F774
:1004F000809582238BBB0895413059F428B381E065
:1005000090E002C0880F991F6A95E2F7822B88BBA2
:100510000895411141C028B381E090E002C0880FE6
:10052000991F6A95E2F78095822388BB0895413030
:1005300059F425B381E090E002C0880F991F6A95B5
:10054000E2F7822B85BB0895411126C025B381E0D7
:1005500090E002C0880F991F6A95E2F78095822388
:1005600085BB0895413059F422B381E090E002C088
:10057000880F991F6A95E2F7822B82BB089541117B
:100580000BC022B381E090E002C0880F991F6A95EA
:10059000E2F78095822382BB089513BE08950F93DE
:1005A0001F93CF93DF938C01BC0180E090E00E9409
:1005B000450428EB3EE143E852E40E94A4030E9474
:1005C0008D030E941604EB01C801BE010E9438058C
:1005D00080E090E00E9445049B01AC0168EB7EE165
:1005E00083E892E40E9420032FE632E143E85EE3D1
:1005F0000E94A4030E9414050E94160462BF83B7E0
:10060000846083BF40E050E0BA010AC008B600FE33
:10061000FDCF88B7816088BF4F5F5F4F6F4F7F4FBF
:10062000CE01A0E0B0E0481759076A077B0770F3D6
:1006300013BEDF91CF911F910F91089582B7089556
:100640005058BB27AA270E9438030C94C2040E946A
:10065000B40438F00E94BB0420F039F49F3F19F431
:1006600026F40C94B1040EF4E095E7FB0C9482049C
:10067000E92F0E94D30458F3BA176207730784075F
:10068000950720F079F4A6F50C940D050EF4E0958D
:100690000B2EBA2FA02D0B01B90190010C01CA013C
:1006A000A0011124FF27591B99F0593F50F4503EE7
:1006B00068F11A16F040A22F232F342F4427585FD9
:1006C000F3CF469537952795A795F0405395C9F7F1
:1006D0007EF41F16BA0B620B730B840BBAF09150A9
:1006E000A1F0FF0FBB1F661F771F881FC2F70EC048
:1006F000BA0F621F731F841F48F48795779567951B
:10070000B795F7959E3F08F0B0CF9395880F08F006
:100710009927EE0F9795879508950E94F50490F01C
:100720009F3748F4911116F40C940E0560E070E0C8
:1007300080E89FE3089526F01B16611D711D811D41
:100740000C9488040C94A3040E94B8030C94C20473
:100750000E94BB0458F00E94B40440F029F45F3FAB
:1007600029F00C94820451110C940E050C94B104E0
:100770000E94D30468F39923B1F3552391F3951B99
:10078000550BBB27AA2762177307840738F09F5FB2
:100790005F4F220F331F441FAA1FA9F335D00E2E1F
:1007A0003AF0E0E832D091505040E695001CCAF78C
:1007B0002BD0FE2F29D0660F771F881FBB1F26174F
:1007C00037074807AB07B0E809F0BB0B802DBF0126
:1007D000FF2793585F4F3AF09E3F510578F00C94F5
:1007E00082040C940E055F3FE4F3983ED4F38695A3
:1007F00077956795B795F7959F5FC9F7880F911D16
:100800009695879597F90895E1E0660F771F881F01
:10081000BB1F621773078407BA0720F0621B730BB4
:10082000840BBA0BEE1F88F7E09508950E94DB0455
:1008300088F09F5798F0B92F9927B751B0F0E1F0A1
:10084000660F771F881F991F1AF0BA95C9F714C051
:10085000B13091F00E940D05B1E008950C940D05A2
:10086000672F782F8827B85F39F0B93FCCF386958A
:1008700077956795B395D9F73EF4909580957095E7
:1008800061957F4F8F4F9F4F0895E89409C097FB64
:100890003EF490958095709561957F4F8F4F9F4F57
:1008A0009923A9F0F92F96E9BB279395F69587959B
:1008B00077956795B795F111F8CFFAF4BB0F11F45E
:1008C00060FF1BC06F5F7F4F8F4F9F4F16C0882305
:1008D00011F096E911C0772321F09EE8872F762F3B
:1008E00005C0662371F096E8862F70E060E02AF07C
:1008F0009A95660F771F881FDAF7880F9695879568
:1009000097F9089597F99F6780E870E060E008958F
:10091000882371F4772321F09850872B762F07C016
:10092000662311F499270DC09051862B70E060E08A
:100930002AF09A95660F771F881FDAF7880F969529
:10094000879597F908959F3F31F0915020F487954E
:1009500077956795B795880F911D9695879597F927
:1009600008959FEF80EC089500240A941616170648
:1009700018060906089500240A9412161306140690
:1009800005060895092E0394000C11F4882352F0F3
:10099000BB0F40F4BF2B11F460FF04C06F5F7F4FAB
:1009A0008F4F9F4F089557FD9058440F551F59F092
:1009B0005F3F71F04795880F97FB991F61F09F3F4C
:1009C00079F087950895121613061406551FF2CF75
:1009D0004695F1DF08C0161617061806991FF1CFC5
:1009E000869571056105089408950E94DB04A0F0C6
:1009F000BEE7B91788F4BB279F3860F41616B11DFF
:100A0000672F782F8827985FF7CF8695779567951A
:100A1000B11D93959639C8F30895E894BB276627CE
:100A20007727CB0197F908950E94DB04E8F09E3701
:100A3000E8F09639B8F49E3848F4672F782F882765
:100A4000985FF9CF86957795679593959539D0F30B
:100A5000B62FB1706B0F711D811D20F487957795AE
:100A6000679593950C9488040C94A3040C940E053C
:100A7000AA1BBB1B51E107C0AA1FBB1FA617B707C4
:100A800010F0A61BB70B881F991F5A95A9F78095E0
:0C0A90009095BC01CD010895F894FFCFB3
:00000001FF
